{
  "_format": "hh-sol-artifact-1",
  "contractName": "CryptoPizza",
  "sourceName": "contracts/CryptoPizza.sol",
  "abi": [
    {
      "inputs": [
        {
          "internalType": "string[]",
          "name": "pizzaNames",
          "type": "string[]"
        },
        {
          "internalType": "string[]",
          "name": "pizzaDescriptions",
          "type": "string[]"
        },
        {
          "internalType": "uint256[]",
          "name": "pizzaPrices",
          "type": "uint256[]"
        },
        {
          "internalType": "string[]",
          "name": "pizzaImages",
          "type": "string[]"
        },
        {
          "internalType": "string",
          "name": "_imageURI",
          "type": "string"
        }
      ],
      "stateMutability": "nonpayable",
      "type": "constructor"
    },
    {
      "anonymous": false,
      "inputs": [
        {
          "indexed": true,
          "internalType": "address",
          "name": "owner",
          "type": "address"
        },
        {
          "indexed": true,
          "internalType": "address",
          "name": "approved",
          "type": "address"
        },
        {
          "indexed": true,
          "internalType": "uint256",
          "name": "tokenId",
          "type": "uint256"
        }
      ],
      "name": "Approval",
      "type": "event"
    },
    {
      "anonymous": false,
      "inputs": [
        {
          "indexed": true,
          "internalType": "address",
          "name": "owner",
          "type": "address"
        },
        {
          "indexed": true,
          "internalType": "address",
          "name": "operator",
          "type": "address"
        },
        {
          "indexed": false,
          "internalType": "bool",
          "name": "approved",
          "type": "bool"
        }
      ],
      "name": "ApprovalForAll",
      "type": "event"
    },
    {
      "anonymous": false,
      "inputs": [
        {
          "indexed": false,
          "internalType": "uint256",
          "name": "orderId",
          "type": "uint256"
        },
        {
          "indexed": false,
          "internalType": "uint256[]",
          "name": "pizzaIds",
          "type": "uint256[]"
        },
        {
          "indexed": false,
          "internalType": "address",
          "name": "customer",
          "type": "address"
        }
      ],
      "name": "PizzaOrderCreated",
      "type": "event"
    },
    {
      "anonymous": false,
      "inputs": [
        {
          "indexed": true,
          "internalType": "address",
          "name": "from",
          "type": "address"
        },
        {
          "indexed": true,
          "internalType": "address",
          "name": "to",
          "type": "address"
        },
        {
          "indexed": true,
          "internalType": "uint256",
          "name": "tokenId",
          "type": "uint256"
        }
      ],
      "name": "Transfer",
      "type": "event"
    },
    {
      "inputs": [
        {
          "internalType": "address",
          "name": "to",
          "type": "address"
        },
        {
          "internalType": "uint256",
          "name": "tokenId",
          "type": "uint256"
        }
      ],
      "name": "approve",
      "outputs": [],
      "stateMutability": "nonpayable",
      "type": "function"
    },
    {
      "inputs": [
        {
          "internalType": "address",
          "name": "owner",
          "type": "address"
        }
      ],
      "name": "balanceOf",
      "outputs": [
        {
          "internalType": "uint256",
          "name": "",
          "type": "uint256"
        }
      ],
      "stateMutability": "view",
      "type": "function"
    },
    {
      "inputs": [
        {
          "internalType": "uint256[]",
          "name": "pizzaIds",
          "type": "uint256[]"
        }
      ],
      "name": "calculatePrice",
      "outputs": [
        {
          "internalType": "uint256",
          "name": "",
          "type": "uint256"
        }
      ],
      "stateMutability": "view",
      "type": "function"
    },
    {
      "inputs": [],
      "name": "getAllPizzas",
      "outputs": [
        {
          "components": [
            {
              "internalType": "string",
              "name": "name",
              "type": "string"
            },
            {
              "internalType": "string",
              "name": "description",
              "type": "string"
            },
            {
              "internalType": "uint256",
              "name": "price",
              "type": "uint256"
            },
            {
              "internalType": "string",
              "name": "image",
              "type": "string"
            }
          ],
          "internalType": "struct CryptoPizza.Pizza[]",
          "name": "",
          "type": "tuple[]"
        }
      ],
      "stateMutability": "view",
      "type": "function"
    },
    {
      "inputs": [
        {
          "internalType": "uint256",
          "name": "tokenId",
          "type": "uint256"
        }
      ],
      "name": "getApproved",
      "outputs": [
        {
          "internalType": "address",
          "name": "",
          "type": "address"
        }
      ],
      "stateMutability": "view",
      "type": "function"
    },
    {
      "inputs": [],
      "name": "imageURI",
      "outputs": [
        {
          "internalType": "string",
          "name": "",
          "type": "string"
        }
      ],
      "stateMutability": "view",
      "type": "function"
    },
    {
      "inputs": [
        {
          "internalType": "address",
          "name": "owner",
          "type": "address"
        },
        {
          "internalType": "address",
          "name": "operator",
          "type": "address"
        }
      ],
      "name": "isApprovedForAll",
      "outputs": [
        {
          "internalType": "bool",
          "name": "",
          "type": "bool"
        }
      ],
      "stateMutability": "view",
      "type": "function"
    },
    {
      "inputs": [
        {
          "internalType": "uint256[]",
          "name": "pizzaIds",
          "type": "uint256[]"
        }
      ],
      "name": "mintPizza",
      "outputs": [],
      "stateMutability": "payable",
      "type": "function"
    },
    {
      "inputs": [],
      "name": "name",
      "outputs": [
        {
          "internalType": "string",
          "name": "",
          "type": "string"
        }
      ],
      "stateMutability": "view",
      "type": "function"
    },
    {
      "inputs": [
        {
          "internalType": "uint256",
          "name": "",
          "type": "uint256"
        },
        {
          "internalType": "uint256",
          "name": "",
          "type": "uint256"
        }
      ],
      "name": "orders",
      "outputs": [
        {
          "internalType": "uint256",
          "name": "",
          "type": "uint256"
        }
      ],
      "stateMutability": "view",
      "type": "function"
    },
    {
      "inputs": [
        {
          "internalType": "uint256",
          "name": "tokenId",
          "type": "uint256"
        }
      ],
      "name": "ownerOf",
      "outputs": [
        {
          "internalType": "address",
          "name": "",
          "type": "address"
        }
      ],
      "stateMutability": "view",
      "type": "function"
    },
    {
      "inputs": [
        {
          "internalType": "uint256",
          "name": "",
          "type": "uint256"
        }
      ],
      "name": "pizzas",
      "outputs": [
        {
          "internalType": "string",
          "name": "name",
          "type": "string"
        },
        {
          "internalType": "string",
          "name": "description",
          "type": "string"
        },
        {
          "internalType": "uint256",
          "name": "price",
          "type": "uint256"
        },
        {
          "internalType": "string",
          "name": "image",
          "type": "string"
        }
      ],
      "stateMutability": "view",
      "type": "function"
    },
    {
      "inputs": [
        {
          "internalType": "address",
          "name": "from",
          "type": "address"
        },
        {
          "internalType": "address",
          "name": "to",
          "type": "address"
        },
        {
          "internalType": "uint256",
          "name": "tokenId",
          "type": "uint256"
        }
      ],
      "name": "safeTransferFrom",
      "outputs": [],
      "stateMutability": "nonpayable",
      "type": "function"
    },
    {
      "inputs": [
        {
          "internalType": "address",
          "name": "from",
          "type": "address"
        },
        {
          "internalType": "address",
          "name": "to",
          "type": "address"
        },
        {
          "internalType": "uint256",
          "name": "tokenId",
          "type": "uint256"
        },
        {
          "internalType": "bytes",
          "name": "_data",
          "type": "bytes"
        }
      ],
      "name": "safeTransferFrom",
      "outputs": [],
      "stateMutability": "nonpayable",
      "type": "function"
    },
    {
      "inputs": [
        {
          "internalType": "address",
          "name": "operator",
          "type": "address"
        },
        {
          "internalType": "bool",
          "name": "approved",
          "type": "bool"
        }
      ],
      "name": "setApprovalForAll",
      "outputs": [],
      "stateMutability": "nonpayable",
      "type": "function"
    },
    {
      "inputs": [
        {
          "internalType": "bytes4",
          "name": "interfaceId",
          "type": "bytes4"
        }
      ],
      "name": "supportsInterface",
      "outputs": [
        {
          "internalType": "bool",
          "name": "",
          "type": "bool"
        }
      ],
      "stateMutability": "view",
      "type": "function"
    },
    {
      "inputs": [],
      "name": "symbol",
      "outputs": [
        {
          "internalType": "string",
          "name": "",
          "type": "string"
        }
      ],
      "stateMutability": "view",
      "type": "function"
    },
    {
      "inputs": [
        {
          "internalType": "uint256",
          "name": "orderId",
          "type": "uint256"
        }
      ],
      "name": "tokenURI",
      "outputs": [
        {
          "internalType": "string",
          "name": "",
          "type": "string"
        }
      ],
      "stateMutability": "view",
      "type": "function"
    },
    {
      "inputs": [
        {
          "internalType": "address",
          "name": "from",
          "type": "address"
        },
        {
          "internalType": "address",
          "name": "to",
          "type": "address"
        },
        {
          "internalType": "uint256",
          "name": "tokenId",
          "type": "uint256"
        }
      ],
      "name": "transferFrom",
      "outputs": [],
      "stateMutability": "nonpayable",
      "type": "function"
    }
  ],
  "bytecode": "0x60806040523480156200001157600080fd5b50604051620047353803806200473583398181016040528101906200003791906200062d565b6040518060400160405280600b81526020017f43727970746f50697a7a610000000000000000000000000000000000000000008152506040518060400160405280600381526020017f43505a00000000000000000000000000000000000000000000000000000000008152508160009081620000b4919062000991565b508060019081620000c6919062000991565b50505060005b85518110156200021057620000e06200025b565b868281518110620000f657620000f562000a78565b5b602002602001015181600001819052508582815181106200011c576200011b62000a78565b5b6020026020010151816020018190525084828151811062000142576200014162000a78565b5b602002602001015181604001818152505083828151811062000169576200016862000a78565b5b6020026020010151816060018190525060098190806001815401808255809150506001900390600052602060002090600402016000909190919091506000820151816000019081620001bc919062000991565b506020820151816001019081620001d4919062000991565b50604082015181600201556060820151816003019081620001f6919062000991565b505050508080620002079062000ad6565b915050620000cc565b50806006908162000222919062000991565b506200023a60086200024560201b620013931760201c565b505050505062000b23565b6001816000016000828254019250508190555050565b6040518060800160405280606081526020016060815260200160008152602001606081525090565b6000604051905090565b600080fd5b600080fd5b600080fd5b6000601f19601f8301169050919050565b7f4e487b7100000000000000000000000000000000000000000000000000000000600052604160045260246000fd5b620002e7826200029c565b810181811067ffffffffffffffff82111715620003095762000308620002ad565b5b80604052505050565b60006200031e62000283565b90506200032c8282620002dc565b919050565b600067ffffffffffffffff8211156200034f576200034e620002ad565b5b602082029050602081019050919050565b600080fd5b600080fd5b600067ffffffffffffffff821115620003885762000387620002ad565b5b62000393826200029c565b9050602081019050919050565b60005b83811015620003c0578082015181840152602081019050620003a3565b83811115620003d0576000848401525b50505050565b6000620003ed620003e7846200036a565b62000312565b9050828152602081018484840111156200040c576200040b62000365565b5b62000419848285620003a0565b509392505050565b600082601f83011262000439576200043862000297565b5b81516200044b848260208601620003d6565b91505092915050565b60006200046b620004658462000331565b62000312565b9050808382526020820190506020840283018581111562000491576200049062000360565b5b835b81811015620004df57805167ffffffffffffffff811115620004ba57620004b962000297565b5b808601620004c9898262000421565b8552602085019450505060208101905062000493565b5050509392505050565b600082601f83011262000501576200050062000297565b5b81516200051384826020860162000454565b91505092915050565b600067ffffffffffffffff8211156200053a5762000539620002ad565b5b602082029050602081019050919050565b6000819050919050565b62000560816200054b565b81146200056c57600080fd5b50565b600081519050620005808162000555565b92915050565b60006200059d62000597846200051c565b62000312565b90508083825260208201905060208402830185811115620005c357620005c262000360565b5b835b81811015620005f05780620005db88826200056f565b845260208401935050602081019050620005c5565b5050509392505050565b600082601f83011262000612576200061162000297565b5b81516200062484826020860162000586565b91505092915050565b600080600080600060a086880312156200064c576200064b6200028d565b5b600086015167ffffffffffffffff8111156200066d576200066c62000292565b5b6200067b88828901620004e9565b955050602086015167ffffffffffffffff8111156200069f576200069e62000292565b5b620006ad88828901620004e9565b945050604086015167ffffffffffffffff811115620006d157620006d062000292565b5b620006df88828901620005fa565b935050606086015167ffffffffffffffff81111562000703576200070262000292565b5b6200071188828901620004e9565b925050608086015167ffffffffffffffff81111562000735576200073462000292565b5b620007438882890162000421565b9150509295509295909350565b600081519050919050565b7f4e487b7100000000000000000000000000000000000000000000000000000000600052602260045260246000fd5b60006002820490506001821680620007a357607f821691505b602082108103620007b957620007b86200075b565b5b50919050565b60008190508160005260206000209050919050565b60006020601f8301049050919050565b600082821b905092915050565b600060088302620008237fffffffffffffffffffffffffffffffffffffffffffffffffffffffffffffffff82620007e4565b6200082f8683620007e4565b95508019841693508086168417925050509392505050565b6000819050919050565b6000620008726200086c62000866846200054b565b62000847565b6200054b565b9050919050565b6000819050919050565b6200088e8362000851565b620008a66200089d8262000879565b848454620007f1565b825550505050565b600090565b620008bd620008ae565b620008ca81848462000883565b505050565b5b81811015620008f257620008e6600082620008b3565b600181019050620008d0565b5050565b601f82111562000941576200090b81620007bf565b6200091684620007d4565b8101602085101562000926578190505b6200093e6200093585620007d4565b830182620008cf565b50505b505050565b600082821c905092915050565b6000620009666000198460080262000946565b1980831691505092915050565b600062000981838362000953565b9150826002028217905092915050565b6200099c8262000750565b67ffffffffffffffff811115620009b857620009b7620002ad565b5b620009c482546200078a565b620009d1828285620008f6565b600060209050601f83116001811462000a095760008415620009f4578287015190505b62000a00858262000973565b86555062000a70565b601f19841662000a1986620007bf565b60005b8281101562000a435784890151825560018201915060208501945060208101905062000a1c565b8683101562000a63578489015162000a5f601f89168262000953565b8355505b6001600288020188555050505b505050505050565b7f4e487b7100000000000000000000000000000000000000000000000000000000600052603260045260246000fd5b7f4e487b7100000000000000000000000000000000000000000000000000000000600052601160045260246000fd5b600062000ae3826200054b565b91507fffffffffffffffffffffffffffffffffffffffffffffffffffffffffffffffff820362000b185762000b1762000aa7565b5b600182019050919050565b613c028062000b336000396000f3fe6080604052600436106101145760003560e01c80636b67a1b2116100a0578063b94a000f11610064578063b94a000f146103c6578063c0b4166014610403578063c87b56dd14610440578063e985e9c51461047d578063fc3c0416146104ba57610114565b80636b67a1b2146102cc57806370a082311461030c57806395d89b4114610349578063a22cb46514610374578063b88d4fde1461039d57610114565b80630d3412f3116100e75780630d3412f3146101e7578063135d088d1461021257806323b872dd1461023d57806342842e0e146102665780636352211e1461028f57610114565b806301ffc9a71461011957806306fdde0314610156578063081812fc14610181578063095ea7b3146101be575b600080fd5b34801561012557600080fd5b50610140600480360381019061013b919061222d565b6104d6565b60405161014d9190612275565b60405180910390f35b34801561016257600080fd5b5061016b6105b8565b6040516101789190612329565b60405180910390f35b34801561018d57600080fd5b506101a860048036038101906101a39190612381565b61064a565b6040516101b591906123ef565b60405180910390f35b3480156101ca57600080fd5b506101e560048036038101906101e09190612436565b6106cf565b005b3480156101f357600080fd5b506101fc6107e6565b6040516102099190612602565b60405180910390f35b34801561021e57600080fd5b50610227610a05565b6040516102349190612329565b60405180910390f35b34801561024957600080fd5b50610264600480360381019061025f9190612624565b610a93565b005b34801561027257600080fd5b5061028d60048036038101906102889190612624565b610af3565b005b34801561029b57600080fd5b506102b660048036038101906102b19190612381565b610b13565b6040516102c391906123ef565b60405180910390f35b3480156102d857600080fd5b506102f360048036038101906102ee9190612381565b610bc4565b6040516103039493929190612686565b60405180910390f35b34801561031857600080fd5b50610333600480360381019061032e91906126e0565b610d9c565b604051610340919061270d565b60405180910390f35b34801561035557600080fd5b5061035e610e53565b60405161036b9190612329565b60405180910390f35b34801561038057600080fd5b5061039b60048036038101906103969190612754565b610ee5565b005b3480156103a957600080fd5b506103c460048036038101906103bf91906128c9565b610efb565b005b3480156103d257600080fd5b506103ed60048036038101906103e8919061294c565b610f5d565b6040516103fa919061270d565b60405180910390f35b34801561040f57600080fd5b5061042a60048036038101906104259190612a54565b610f8e565b604051610437919061270d565b60405180910390f35b34801561044c57600080fd5b5061046760048036038101906104629190612381565b61100b565b6040516104749190612329565b60405180910390f35b34801561048957600080fd5b506104a4600480360381019061049f9190612a9d565b6111fd565b6040516104b19190612275565b60405180910390f35b6104d460048036038101906104cf9190612a54565b611291565b005b60007f80ac58cd000000000000000000000000000000000000000000000000000000007bffffffffffffffffffffffffffffffffffffffffffffffffffffffff1916827bffffffffffffffffffffffffffffffffffffffffffffffffffffffff191614806105a157507f5b5e139f000000000000000000000000000000000000000000000000000000007bffffffffffffffffffffffffffffffffffffffffffffffffffffffff1916827bffffffffffffffffffffffffffffffffffffffffffffffffffffffff1916145b806105b157506105b0826113a9565b5b9050919050565b6060600080546105c790612b0c565b80601f01602080910402602001604051908101604052809291908181526020018280546105f390612b0c565b80156106405780601f1061061557610100808354040283529160200191610640565b820191906000526020600020905b81548152906001019060200180831161062357829003601f168201915b5050505050905090565b600061065582611413565b610694576040517f08c379a000000000000000000000000000000000000000000000000000000000815260040161068b90612baf565b60405180910390fd5b6004600083815260200190815260200160002060009054906101000a900473ffffffffffffffffffffffffffffffffffffffff169050919050565b60006106da82610b13565b90508073ffffffffffffffffffffffffffffffffffffffff168373ffffffffffffffffffffffffffffffffffffffff160361074a576040517f08c379a000000000000000000000000000000000000000000000000000000000815260040161074190612c41565b60405180910390fd5b8073ffffffffffffffffffffffffffffffffffffffff1661076961147f565b73ffffffffffffffffffffffffffffffffffffffff16148061079857506107978161079261147f565b6111fd565b5b6107d7576040517f08c379a00000000000000000000000000000000000000000000000000000000081526004016107ce90612cd3565b60405180910390fd5b6107e18383611487565b505050565b60606009805480602002602001604051908101604052809291908181526020016000905b828210156109fc578382906000526020600020906004020160405180608001604052908160008201805461083d90612b0c565b80601f016020809104026020016040519081016040528092919081815260200182805461086990612b0c565b80156108b65780601f1061088b576101008083540402835291602001916108b6565b820191906000526020600020905b81548152906001019060200180831161089957829003601f168201915b505050505081526020016001820180546108cf90612b0c565b80601f01602080910402602001604051908101604052809291908181526020018280546108fb90612b0c565b80156109485780601f1061091d57610100808354040283529160200191610948565b820191906000526020600020905b81548152906001019060200180831161092b57829003601f168201915b505050505081526020016002820154815260200160038201805461096b90612b0c565b80601f016020809104026020016040519081016040528092919081815260200182805461099790612b0c565b80156109e45780601f106109b9576101008083540402835291602001916109e4565b820191906000526020600020905b8154815290600101906020018083116109c757829003601f168201915b5050505050815250508152602001906001019061080a565b50505050905090565b60068054610a1290612b0c565b80601f0160208091040260200160405190810160405280929190818152602001828054610a3e90612b0c565b8015610a8b5780601f10610a6057610100808354040283529160200191610a8b565b820191906000526020600020905b815481529060010190602001808311610a6e57829003601f168201915b505050505081565b610aa4610a9e61147f565b82611540565b610ae3576040517f08c379a0000000000000000000000000000000000000000000000000000000008152600401610ada90612d65565b60405180910390fd5b610aee83838361161e565b505050565b610b0e83838360405180602001604052806000815250610efb565b505050565b6000806002600084815260200190815260200160002060009054906101000a900473ffffffffffffffffffffffffffffffffffffffff169050600073ffffffffffffffffffffffffffffffffffffffff168173ffffffffffffffffffffffffffffffffffffffff1603610bbb576040517f08c379a0000000000000000000000000000000000000000000000000000000008152600401610bb290612df7565b60405180910390fd5b80915050919050565b60098181548110610bd457600080fd5b9060005260206000209060040201600091509050806000018054610bf790612b0c565b80601f0160208091040260200160405190810160405280929190818152602001828054610c2390612b0c565b8015610c705780601f10610c4557610100808354040283529160200191610c70565b820191906000526020600020905b815481529060010190602001808311610c5357829003601f168201915b505050505090806001018054610c8590612b0c565b80601f0160208091040260200160405190810160405280929190818152602001828054610cb190612b0c565b8015610cfe5780601f10610cd357610100808354040283529160200191610cfe565b820191906000526020600020905b815481529060010190602001808311610ce157829003601f168201915b505050505090806002015490806003018054610d1990612b0c565b80601f0160208091040260200160405190810160405280929190818152602001828054610d4590612b0c565b8015610d925780601f10610d6757610100808354040283529160200191610d92565b820191906000526020600020905b815481529060010190602001808311610d7557829003601f168201915b5050505050905084565b60008073ffffffffffffffffffffffffffffffffffffffff168273ffffffffffffffffffffffffffffffffffffffff1603610e0c576040517f08c379a0000000000000000000000000000000000000000000000000000000008152600401610e0390612e89565b60405180910390fd5b600360008373ffffffffffffffffffffffffffffffffffffffff1673ffffffffffffffffffffffffffffffffffffffff168152602001908152602001600020549050919050565b606060018054610e6290612b0c565b80601f0160208091040260200160405190810160405280929190818152602001828054610e8e90612b0c565b8015610edb5780601f10610eb057610100808354040283529160200191610edb565b820191906000526020600020905b815481529060010190602001808311610ebe57829003601f168201915b5050505050905090565b610ef7610ef061147f565b8383611884565b5050565b610f0c610f0661147f565b83611540565b610f4b576040517f08c379a0000000000000000000000000000000000000000000000000000000008152600401610f4290612d65565b60405180910390fd5b610f57848484846119f0565b50505050565b60076020528160005260406000208181548110610f7957600080fd5b90600052602060002001600091509150505481565b6000806000905060005b8351811015611001576009848281518110610fb657610fb5612ea9565b5b602002602001015181548110610fcf57610fce612ea9565b5b90600052602060002090600402016002015482610fec9190612f07565b91508080610ff990612f5d565b915050610f98565b5080915050919050565b606060006007600084815260200190815260200160002080548060200260200160405190810160405280929190818152602001828054801561106c57602002820191906000526020600020905b815481526020019060010190808311611058575b50505050509050600060098260008151811061108b5761108a612ea9565b5b6020026020010151815481106110a4576110a3612ea9565b5b90600052602060002090600402016000016040516020016110c591906130e0565b60405160208183030381529060405290506000600190505b825181101561117157816110fc6001836110f79190612f07565b611a4c565b600985848151811061111157611110612ea9565b5b60200260200101518154811061112a57611129612ea9565b5b906000526020600020906004020160000160405160200161114d9392919061318e565b6040516020818303038152906040529150808061116990612f5d565b9150506110dd565b50806040516020016111839190613212565b604051602081830303815290604052905060006111cb6111a286611a4c565b6006846040516020016111b7939291906133b4565b604051602081830303815290604052611bac565b90506000816040516020016111e0919061345d565b604051602081830303815290604052905080945050505050919050565b6000600560008473ffffffffffffffffffffffffffffffffffffffff1673ffffffffffffffffffffffffffffffffffffffff16815260200190815260200160002060008373ffffffffffffffffffffffffffffffffffffffff1673ffffffffffffffffffffffffffffffffffffffff16815260200190815260200160002060009054906101000a900460ff16905092915050565b600061129c82610f8e565b9050348111156112e1576040517f08c379a00000000000000000000000000000000000000000000000000000000081526004016112d8906134f1565b60405180910390fd5b60006112ed6008611d43565b905082600760008381526020019081526020016000209080519060200190611316929190612157565b506113213382611d51565b82600760008381526020019081526020016000209080519060200190611348929190612157565b506113536008611393565b7f686380410a4c7ba8762e746109ddeb6d24c5c3c1a3a38bff57f1f5bb353f64d1818433604051611386939291906135c0565b60405180910390a1505050565b6001816000016000828254019250508190555050565b60007f01ffc9a7000000000000000000000000000000000000000000000000000000007bffffffffffffffffffffffffffffffffffffffffffffffffffffffff1916827bffffffffffffffffffffffffffffffffffffffffffffffffffffffff1916149050919050565b60008073ffffffffffffffffffffffffffffffffffffffff166002600084815260200190815260200160002060009054906101000a900473ffffffffffffffffffffffffffffffffffffffff1673ffffffffffffffffffffffffffffffffffffffff1614159050919050565b600033905090565b816004600083815260200190815260200160002060006101000a81548173ffffffffffffffffffffffffffffffffffffffff021916908373ffffffffffffffffffffffffffffffffffffffff160217905550808273ffffffffffffffffffffffffffffffffffffffff166114fa83610b13565b73ffffffffffffffffffffffffffffffffffffffff167f8c5be1e5ebec7d5bd14f71427d1e84f3dd0314c0f7b2291e5b200ac8c7c3b92560405160405180910390a45050565b600061154b82611413565b61158a576040517f08c379a000000000000000000000000000000000000000000000000000000000815260040161158190613670565b60405180910390fd5b600061159583610b13565b90508073ffffffffffffffffffffffffffffffffffffffff168473ffffffffffffffffffffffffffffffffffffffff1614806115d757506115d681856111fd565b5b8061161557508373ffffffffffffffffffffffffffffffffffffffff166115fd8461064a565b73ffffffffffffffffffffffffffffffffffffffff16145b91505092915050565b8273ffffffffffffffffffffffffffffffffffffffff1661163e82610b13565b73ffffffffffffffffffffffffffffffffffffffff1614611694576040517f08c379a000000000000000000000000000000000000000000000000000000000815260040161168b90613702565b60405180910390fd5b600073ffffffffffffffffffffffffffffffffffffffff168273ffffffffffffffffffffffffffffffffffffffff1603611703576040517f08c379a00000000000000000000000000000000000000000000000000000000081526004016116fa90613794565b60405180910390fd5b61170e838383611d6f565b611719600082611487565b6001600360008573ffffffffffffffffffffffffffffffffffffffff1673ffffffffffffffffffffffffffffffffffffffff168152602001908152602001600020600082825461176991906137b4565b925050819055506001600360008473ffffffffffffffffffffffffffffffffffffffff1673ffffffffffffffffffffffffffffffffffffffff16815260200190815260200160002060008282546117c09190612f07565b92505081905550816002600083815260200190815260200160002060006101000a81548173ffffffffffffffffffffffffffffffffffffffff021916908373ffffffffffffffffffffffffffffffffffffffff160217905550808273ffffffffffffffffffffffffffffffffffffffff168473ffffffffffffffffffffffffffffffffffffffff167fddf252ad1be2c89b69c2b068fc378daa952ba7f163c4a11628f55a4df523b3ef60405160405180910390a461187f838383611d74565b505050565b8173ffffffffffffffffffffffffffffffffffffffff168373ffffffffffffffffffffffffffffffffffffffff16036118f2576040517f08c379a00000000000000000000000000000000000000000000000000000000081526004016118e990613834565b60405180910390fd5b80600560008573ffffffffffffffffffffffffffffffffffffffff1673ffffffffffffffffffffffffffffffffffffffff16815260200190815260200160002060008473ffffffffffffffffffffffffffffffffffffffff1673ffffffffffffffffffffffffffffffffffffffff16815260200190815260200160002060006101000a81548160ff0219169083151502179055508173ffffffffffffffffffffffffffffffffffffffff168373ffffffffffffffffffffffffffffffffffffffff167f17307eab39ab6107e8899845ad3d59bd9653f200f220920489ca2b5937696c31836040516119e39190612275565b60405180910390a3505050565b6119fb84848461161e565b611a0784848484611d79565b611a46576040517f08c379a0000000000000000000000000000000000000000000000000000000008152600401611a3d906138c6565b60405180910390fd5b50505050565b606060008203611a93576040518060400160405280600181526020017f30000000000000000000000000000000000000000000000000000000000000008152509050611ba7565b600082905060005b60008214611ac5578080611aae90612f5d565b915050600a82611abe9190613915565b9150611a9b565b60008167ffffffffffffffff811115611ae157611ae061279e565b5b6040519080825280601f01601f191660200182016040528015611b135781602001600182028036833780820191505090505b5090505b60008514611ba057600182611b2c91906137b4565b9150600a85611b3b9190613946565b6030611b479190612f07565b60f81b818381518110611b5d57611b5c612ea9565b5b60200101907effffffffffffffffffffffffffffffffffffffffffffffffffffffffffffff1916908160001a905350600a85611b999190613915565b9450611b17565b8093505050505b919050565b606060008251905060008103611bd45760405180602001604052806000815250915050611d3e565b60006003600283611be59190612f07565b611bef9190613915565b6004611bfb9190613977565b90506000602082611c0c9190612f07565b67ffffffffffffffff811115611c2557611c2461279e565b5b6040519080825280601f01601f191660200182016040528015611c575781602001600182028036833780820191505090505b5090506000604051806060016040528060408152602001613b8d604091399050600181016020830160005b86811015611cfb5760038101905062ffffff818a015116603f8160121c168401518060081b905060ff603f83600c1c1686015116810190508060081b905060ff603f8360061c1686015116810190508060081b905060ff603f831686015116810190508060e01b90508084526004840193505050611c82565b506003860660018114611d155760028114611d2557611d30565b613d3d60f01b6002830352611d30565b603d60f81b60018303525b508484525050819450505050505b919050565b600081600001549050919050565b611d6b828260405180602001604052806000815250611f00565b5050565b505050565b505050565b6000611d9a8473ffffffffffffffffffffffffffffffffffffffff16611f5b565b15611ef3578373ffffffffffffffffffffffffffffffffffffffff1663150b7a02611dc361147f565b8786866040518563ffffffff1660e01b8152600401611de59493929190613a26565b6020604051808303816000875af1925050508015611e2157506040513d601f19601f82011682018060405250810190611e1e9190613a87565b60015b611ea3573d8060008114611e51576040519150601f19603f3d011682016040523d82523d6000602084013e611e56565b606091505b506000815103611e9b576040517f08c379a0000000000000000000000000000000000000000000000000000000008152600401611e92906138c6565b60405180910390fd5b805181602001fd5b63150b7a0260e01b7bffffffffffffffffffffffffffffffffffffffffffffffffffffffff1916817bffffffffffffffffffffffffffffffffffffffffffffffffffffffff191614915050611ef8565b600190505b949350505050565b611f0a8383611f7e565b611f176000848484611d79565b611f56576040517f08c379a0000000000000000000000000000000000000000000000000000000008152600401611f4d906138c6565b60405180910390fd5b505050565b6000808273ffffffffffffffffffffffffffffffffffffffff163b119050919050565b600073ffffffffffffffffffffffffffffffffffffffff168273ffffffffffffffffffffffffffffffffffffffff1603611fed576040517f08c379a0000000000000000000000000000000000000000000000000000000008152600401611fe490613b00565b60405180910390fd5b611ff681611413565b15612036576040517f08c379a000000000000000000000000000000000000000000000000000000000815260040161202d90613b6c565b60405180910390fd5b61204260008383611d6f565b6001600360008473ffffffffffffffffffffffffffffffffffffffff1673ffffffffffffffffffffffffffffffffffffffff16815260200190815260200160002060008282546120929190612f07565b92505081905550816002600083815260200190815260200160002060006101000a81548173ffffffffffffffffffffffffffffffffffffffff021916908373ffffffffffffffffffffffffffffffffffffffff160217905550808273ffffffffffffffffffffffffffffffffffffffff16600073ffffffffffffffffffffffffffffffffffffffff167fddf252ad1be2c89b69c2b068fc378daa952ba7f163c4a11628f55a4df523b3ef60405160405180910390a461215360008383611d74565b5050565b828054828255906000526020600020908101928215612193579160200282015b82811115612192578251825591602001919060010190612177565b5b5090506121a091906121a4565b5090565b5b808211156121bd5760008160009055506001016121a5565b5090565b6000604051905090565b600080fd5b600080fd5b60007fffffffff0000000000000000000000000000000000000000000000000000000082169050919050565b61220a816121d5565b811461221557600080fd5b50565b60008135905061222781612201565b92915050565b600060208284031215612243576122426121cb565b5b600061225184828501612218565b91505092915050565b60008115159050919050565b61226f8161225a565b82525050565b600060208201905061228a6000830184612266565b92915050565b600081519050919050565b600082825260208201905092915050565b60005b838110156122ca5780820151818401526020810190506122af565b838111156122d9576000848401525b50505050565b6000601f19601f8301169050919050565b60006122fb82612290565b612305818561229b565b93506123158185602086016122ac565b61231e816122df565b840191505092915050565b6000602082019050818103600083015261234381846122f0565b905092915050565b6000819050919050565b61235e8161234b565b811461236957600080fd5b50565b60008135905061237b81612355565b92915050565b600060208284031215612397576123966121cb565b5b60006123a58482850161236c565b91505092915050565b600073ffffffffffffffffffffffffffffffffffffffff82169050919050565b60006123d9826123ae565b9050919050565b6123e9816123ce565b82525050565b600060208201905061240460008301846123e0565b92915050565b612413816123ce565b811461241e57600080fd5b50565b6000813590506124308161240a565b92915050565b6000806040838503121561244d5761244c6121cb565b5b600061245b85828601612421565b925050602061246c8582860161236c565b9150509250929050565b600081519050919050565b600082825260208201905092915050565b6000819050602082019050919050565b600082825260208201905092915050565b60006124be82612290565b6124c881856124a2565b93506124d88185602086016122ac565b6124e1816122df565b840191505092915050565b6124f58161234b565b82525050565b6000608083016000830151848203600086015261251882826124b3565b9150506020830151848203602086015261253282826124b3565b915050604083015161254760408601826124ec565b506060830151848203606086015261255f82826124b3565b9150508091505092915050565b600061257883836124fb565b905092915050565b6000602082019050919050565b600061259882612476565b6125a28185612481565b9350836020820285016125b485612492565b8060005b858110156125f057848403895281516125d1858261256c565b94506125dc83612580565b925060208a019950506001810190506125b8565b50829750879550505050505092915050565b6000602082019050818103600083015261261c818461258d565b905092915050565b60008060006060848603121561263d5761263c6121cb565b5b600061264b86828701612421565b935050602061265c86828701612421565b925050604061266d8682870161236c565b9150509250925092565b6126808161234b565b82525050565b600060808201905081810360008301526126a081876122f0565b905081810360208301526126b481866122f0565b90506126c36040830185612677565b81810360608301526126d581846122f0565b905095945050505050565b6000602082840312156126f6576126f56121cb565b5b600061270484828501612421565b91505092915050565b60006020820190506127226000830184612677565b92915050565b6127318161225a565b811461273c57600080fd5b50565b60008135905061274e81612728565b92915050565b6000806040838503121561276b5761276a6121cb565b5b600061277985828601612421565b925050602061278a8582860161273f565b9150509250929050565b600080fd5b600080fd5b7f4e487b7100000000000000000000000000000000000000000000000000000000600052604160045260246000fd5b6127d6826122df565b810181811067ffffffffffffffff821117156127f5576127f461279e565b5b80604052505050565b60006128086121c1565b905061281482826127cd565b919050565b600067ffffffffffffffff8211156128345761283361279e565b5b61283d826122df565b9050602081019050919050565b82818337600083830152505050565b600061286c61286784612819565b6127fe565b90508281526020810184848401111561288857612887612799565b5b61289384828561284a565b509392505050565b600082601f8301126128b0576128af612794565b5b81356128c0848260208601612859565b91505092915050565b600080600080608085870312156128e3576128e26121cb565b5b60006128f187828801612421565b945050602061290287828801612421565b93505060406129138782880161236c565b925050606085013567ffffffffffffffff811115612934576129336121d0565b5b6129408782880161289b565b91505092959194509250565b60008060408385031215612963576129626121cb565b5b60006129718582860161236c565b92505060206129828582860161236c565b9150509250929050565b600067ffffffffffffffff8211156129a7576129a661279e565b5b602082029050602081019050919050565b600080fd5b60006129d06129cb8461298c565b6127fe565b905080838252602082019050602084028301858111156129f3576129f26129b8565b5b835b81811015612a1c5780612a08888261236c565b8452602084019350506020810190506129f5565b5050509392505050565b600082601f830112612a3b57612a3a612794565b5b8135612a4b8482602086016129bd565b91505092915050565b600060208284031215612a6a57612a696121cb565b5b600082013567ffffffffffffffff811115612a8857612a876121d0565b5b612a9484828501612a26565b91505092915050565b60008060408385031215612ab457612ab36121cb565b5b6000612ac285828601612421565b9250506020612ad385828601612421565b9150509250929050565b7f4e487b7100000000000000000000000000000000000000000000000000000000600052602260045260246000fd5b60006002820490506001821680612b2457607f821691505b602082108103612b3757612b36612add565b5b50919050565b7f4552433732313a20617070726f76656420717565727920666f72206e6f6e657860008201527f697374656e7420746f6b656e0000000000000000000000000000000000000000602082015250565b6000612b99602c8361229b565b9150612ba482612b3d565b604082019050919050565b60006020820190508181036000830152612bc881612b8c565b9050919050565b7f4552433732313a20617070726f76616c20746f2063757272656e74206f776e6560008201527f7200000000000000000000000000000000000000000000000000000000000000602082015250565b6000612c2b60218361229b565b9150612c3682612bcf565b604082019050919050565b60006020820190508181036000830152612c5a81612c1e565b9050919050565b7f4552433732313a20617070726f76652063616c6c6572206973206e6f74206f7760008201527f6e6572206e6f7220617070726f76656420666f7220616c6c0000000000000000602082015250565b6000612cbd60388361229b565b9150612cc882612c61565b604082019050919050565b60006020820190508181036000830152612cec81612cb0565b9050919050565b7f4552433732313a207472616e736665722063616c6c6572206973206e6f74206f60008201527f776e6572206e6f7220617070726f766564000000000000000000000000000000602082015250565b6000612d4f60318361229b565b9150612d5a82612cf3565b604082019050919050565b60006020820190508181036000830152612d7e81612d42565b9050919050565b7f4552433732313a206f776e657220717565727920666f72206e6f6e657869737460008201527f656e7420746f6b656e0000000000000000000000000000000000000000000000602082015250565b6000612de160298361229b565b9150612dec82612d85565b604082019050919050565b60006020820190508181036000830152612e1081612dd4565b9050919050565b7f4552433732313a2062616c616e636520717565727920666f7220746865207a6560008201527f726f206164647265737300000000000000000000000000000000000000000000602082015250565b6000612e73602a8361229b565b9150612e7e82612e17565b604082019050919050565b60006020820190508181036000830152612ea281612e66565b9050919050565b7f4e487b7100000000000000000000000000000000000000000000000000000000600052603260045260246000fd5b7f4e487b7100000000000000000000000000000000000000000000000000000000600052601160045260246000fd5b6000612f128261234b565b9150612f1d8361234b565b9250827fffffffffffffffffffffffffffffffffffffffffffffffffffffffffffffffff03821115612f5257612f51612ed8565b5b828201905092915050565b6000612f688261234b565b91507fffffffffffffffffffffffffffffffffffffffffffffffffffffffffffffffff8203612f9a57612f99612ed8565b5b600182019050919050565b600081905092915050565b7f2261747472696275746573223a205b207b202274726169745f74797065223a2060008201527f2250697a7a61202331222c202276616c7565223a202200000000000000000000602082015250565b600061300c603683612fa5565b915061301782612fb0565b603682019050919050565b60008190508160005260206000209050919050565b6000815461304481612b0c565b61304e8186612fa5565b94506001821660008114613069576001811461307e576130b1565b60ff19831686528115158202860193506130b1565b61308785613022565b60005b838110156130a95781548189015260018201915060208101905061308a565b838801955050505b50505092915050565b7f227d200000000000000000000000000000000000000000000000000000000000815250565b60006130eb82612fff565b91506130f78284613037565b9150613102826130ba565b60038201915081905092915050565b600061311c82612290565b6131268185612fa5565b93506131368185602086016122ac565b80840191505092915050565b7f2c207b2274726169745f74797065223a202250697a7a61202300000000000000815250565b7f222c202276616c7565223a202200000000000000000000000000000000000000815250565b600061319a8286613111565b91506131a582613142565b6019820191506131b58285613111565b91506131c082613168565b600d820191506131d08284613037565b91506131db826130ba565b600382019150819050949350505050565b7f5d00000000000000000000000000000000000000000000000000000000000000815250565b600061321e8284613111565b9150613229826131ec565b60018201915081905092915050565b7f7b226e616d65223a202243727970746f50697a7a612023000000000000000000600082015250565b600061326e601783612fa5565b915061327982613238565b601782019050919050565b7f222c20226465736372697074696f6e223a20225468697320697320616e204e4660008201527f54206f6620612063727970746f70697a7a61206f7264657221222c2022696d6160208201527f6765223a20220000000000000000000000000000000000000000000000000000604082015250565b6000613306604683612fa5565b915061331182613284565b604682019050919050565b7f222c200000000000000000000000000000000000000000000000000000000000600082015250565b6000613352600383612fa5565b915061335d8261331c565b600382019050919050565b7f207d000000000000000000000000000000000000000000000000000000000000600082015250565b600061339e600283612fa5565b91506133a982613368565b600282019050919050565b60006133bf82613261565b91506133cb8286613111565b91506133d6826132f9565b91506133e28285613037565b91506133ed82613345565b91506133f98284613111565b915061340482613391565b9150819050949350505050565b7f646174613a6170706c69636174696f6e2f6a736f6e3b6261736536342c000000600082015250565b6000613447601d83612fa5565b915061345282613411565b601d82019050919050565b60006134688261343a565b91506134748284613111565b915081905092915050565b7f546f74616c207072696365206f662070697a7a6173206973206772656174657260008201527f207468616e2074686520616d6f756e742073656e740000000000000000000000602082015250565b60006134db60358361229b565b91506134e68261347f565b604082019050919050565b6000602082019050818103600083015261350a816134ce565b9050919050565b600081519050919050565b600082825260208201905092915050565b6000819050602082019050919050565b600061354983836124ec565b60208301905092915050565b6000602082019050919050565b600061356d82613511565b613577818561351c565b93506135828361352d565b8060005b838110156135b357815161359a888261353d565b97506135a583613555565b925050600181019050613586565b5085935050505092915050565b60006060820190506135d56000830186612677565b81810360208301526135e78185613562565b90506135f660408301846123e0565b949350505050565b7f4552433732313a206f70657261746f7220717565727920666f72206e6f6e657860008201527f697374656e7420746f6b656e0000000000000000000000000000000000000000602082015250565b600061365a602c8361229b565b9150613665826135fe565b604082019050919050565b600060208201905081810360008301526136898161364d565b9050919050565b7f4552433732313a207472616e736665722066726f6d20696e636f72726563742060008201527f6f776e6572000000000000000000000000000000000000000000000000000000602082015250565b60006136ec60258361229b565b91506136f782613690565b604082019050919050565b6000602082019050818103600083015261371b816136df565b9050919050565b7f4552433732313a207472616e7366657220746f20746865207a65726f2061646460008201527f7265737300000000000000000000000000000000000000000000000000000000602082015250565b600061377e60248361229b565b915061378982613722565b604082019050919050565b600060208201905081810360008301526137ad81613771565b9050919050565b60006137bf8261234b565b91506137ca8361234b565b9250828210156137dd576137dc612ed8565b5b828203905092915050565b7f4552433732313a20617070726f766520746f2063616c6c657200000000000000600082015250565b600061381e60198361229b565b9150613829826137e8565b602082019050919050565b6000602082019050818103600083015261384d81613811565b9050919050565b7f4552433732313a207472616e7366657220746f206e6f6e20455243373231526560008201527f63656976657220696d706c656d656e7465720000000000000000000000000000602082015250565b60006138b060328361229b565b91506138bb82613854565b604082019050919050565b600060208201905081810360008301526138df816138a3565b9050919050565b7f4e487b7100000000000000000000000000000000000000000000000000000000600052601260045260246000fd5b60006139208261234b565b915061392b8361234b565b92508261393b5761393a6138e6565b5b828204905092915050565b60006139518261234b565b915061395c8361234b565b92508261396c5761396b6138e6565b5b828206905092915050565b60006139828261234b565b915061398d8361234b565b9250817fffffffffffffffffffffffffffffffffffffffffffffffffffffffffffffffff04831182151516156139c6576139c5612ed8565b5b828202905092915050565b600081519050919050565b600082825260208201905092915050565b60006139f8826139d1565b613a0281856139dc565b9350613a128185602086016122ac565b613a1b816122df565b840191505092915050565b6000608082019050613a3b60008301876123e0565b613a4860208301866123e0565b613a556040830185612677565b8181036060830152613a6781846139ed565b905095945050505050565b600081519050613a8181612201565b92915050565b600060208284031215613a9d57613a9c6121cb565b5b6000613aab84828501613a72565b91505092915050565b7f4552433732313a206d696e7420746f20746865207a65726f2061646472657373600082015250565b6000613aea60208361229b565b9150613af582613ab4565b602082019050919050565b60006020820190508181036000830152613b1981613add565b9050919050565b7f4552433732313a20746f6b656e20616c7265616479206d696e74656400000000600082015250565b6000613b56601c8361229b565b9150613b6182613b20565b602082019050919050565b60006020820190508181036000830152613b8581613b49565b905091905056fe4142434445464748494a4b4c4d4e4f505152535455565758595a6162636465666768696a6b6c6d6e6f707172737475767778797a303132333435363738392b2fa26469706673582212209b768eddbef2cd67848d78581df4d4fd379ea49996c35dac22f14c94d0d3f5f064736f6c634300080f0033",
  "linkReferences": {},
  "deployedLinkReferences": {}
}